01HISTORICAL ETF PORTFOLIOS00002209   6152720211115011549
0225459W458US25459W458300S990143DIREXION DAILY SEMICONDUCTOR SHS                            20210512000022090000000100000000000000 000000000000000000 00000000000000 000000000000000000 00000000000000 00000000000000000000000000 00000000000000 000000000000000000000000050000SOXL           YYY01D       00000000000000000000000000000000000000102030000009511BANK OF NEW YORK                                                    00000000000000000000000 0000000        0000000        00000000000000000000YYY
0325459W458US25459W458300S990143202105120125459W458                000000000005000000000 N SOXL           0 1Y        DIREXION DAILY SEMICONDUCTOR SHS                            0000000000000000S 0000000000000000000000SSET CL0SS A0SET CLASS ACS0000001122222222222220000000000000000000000000   000000000000000000000000   000005020013100001111110000000070000001111111110000000000000000000000000SDG                 0045678912345671000000000SDG234567123451000000000
02464286491US464286491600S994996ISHARES INC EMERGING MKTS LOCAL CURRENCY REDEEM BASKET      20210512000027670000000100000000000000 000000000000000000 00000000000000 000000000000000000 00000000000000 00000000000000000000000000 00000000000000 000000000000000000000000200000LEMBRD         NNY01F       000000000000000000000000000000000000002010000                                                                            00000000000000000000000 0000000        0000000        00000000000000000000YYY
03464286491US464286491600S994996202105120192189H508                000000000005000000000 N MAAX           0 1Y        VANECK VECTORS ETF TR MUN ALLOCATION ETF                    0000000000000000S 0000000000000000000000ASSET CLASS ASSET CLASS ACS111111111111111111111012345678912312312345677USD000000009000000111111111USD000000000000000000000000000000007000000111111111000000600000006789123456USDEURUSDGBP202004149999999991234567987654321USD123456712345112356789
0233738R118US33738R118700S997841FIRST TRUST NASDAQ TECHNOLOGY INDEX ETF                     20210512000001090000000200000000000000 000000000000000000 00000000000000 000000000000000000 00000000000000 00000000000000000000000000 00000000000000 000000000000000000000000050000TDIV           YYY01D       00000000000000000000000000000000000000101000000050131BROWN BROTHERS AND HARRIMAN                                         00000000000000000000000 0000000        0000000        00000000000000000000YYY
0333738R118US33738R118700S997841202105120133738R118                000000000005000000900 NXTDIV           0 1Y        FIRST TRUST NASDAQ TECHNOLOGY INDEX ETF                     0000000000000000SN0000000000000000000000ASSET CL0SS A0SET CLASS ACS000000112222222222222000000003333333331111111USD000000009000000111111111USD000000502001310000111111000000007000000111111111000000600000006789123456USDGBPUSDGBP202009160004567891234567123456789USD123456712345112356789
0333738R118US33738R118700S997841202105120133738R118                000000000005000000000 N TDIV           0 1Y        FIRST TRUST NASDAQ TECHNOLOGY INDEX ETF                     0000000000000000SN0000000000000000000000ASSET CL0SS A0SET CLASS ACS000000112222222222222000000003333333331111111USD000000009000000111111111USD000000502001310000111111000000007000000111111111000000600000006789123456USDGBPUSDGBP202009160004567891234567123456789USD123456712345112356789
0225459Y413US25459Y413600S999771DIREXION DAILY JAPAN BULL 3X SHARES ETF                     20210512000022090000000100000000000000 000000000000000000 00000000000000 000000000000000000 00000000000000 00000000000000000000000000 00000000000000 000000000000000000000000050000JPNL           YYY01D       00000000000000000000000000000000000000102030000000008REORG MANDATORY                                                     00000000000000000000000 0000000        0000000        00000000000000000000YYY
0325459Y413US25459Y413600S999771202105120138380PNA8                000000000005000000000 N                0 2N        GOVERNMENT NATL MTG  00000  62                              0000000000000000BN0000000000000000000000ASSET CLASS ASSET CLASS ACS000000112222222222222000000003333333331111111USD000000009000000111111111USD000000201906250000111111000000007000000111111111000000600000006789123456USDGBPUSDGBP201906100004567891234567123456789USD123456712345112356789
0237950E705US37950E7058000S01148GLOBAL X  MSCI CHINA INDUSTRIALS ETF                        20210512000001090000000700000000000000 000000000000000000 00000000000000 000000000000000000 00000000000000 00000000000000000000000000 00000000000000 000000000000000000000000050000CHII           NNY01F       00000000000000000000000000000000000000101000000050131BROWN BROTHERS AND HARRIMAN                                         00000000000000000000000 0000000        0000000        00000000000000000000YYY
0337950E705US37950E7058000S011482021051201U6S7728S9                000000000005000000000 N                0 2N        MORGAN STANLEY FIN L 00000  28                              0000000000000000B 0000000000000000000000SSET CL0SS A0SET CLASS ACS0000001122222222222220000000000000000000000000   000000000000000000000000   000005020013100001111110000000070000001111111110000000000000000000000000SDG                 0045678912345671000000000SDG234567123451000000000
0337950E705US37950E7058000S01148202105120133737J117                000000000005000000000 N FEP            0 1Y        FIRST TRUST EUROPE ALPHADEX FUND                            0000000000000000S 0000000000000000000000SSET CL0SS A0SET CLASS ACS0000001122222222222220000000000000000000000000   000000000000000000000000   000005020013100001111110000000070000001111111110000000000000000000000000SDG                 0045678912345671000000000SDG234567123451000000000
0337950E705US37950E7058000S01148202105120137950E705                000000000004000000000 N CHII           0 2N        GLOBAL X  MSCI CHINA INDUSTRIALS ETF                        0000000000000000S 0000000000000000000000SSET CL0SS A0SET CLASS ACS0000001122222222222220000000000000000000000000   000000000000000000000000   000005020013100001111110000000070000001111111110000000000000000000000000SDG                 0045678912345671000000000SDG234567123451000000000
0337950E705US37950E7058000S01148202105120138380PNA8                000000000005000000000 N                0 2N        GOVERNMENT NATL MTG  00000  62                              0000000000000000B 0000000000000000000000SSET CL0SS A0SET CLASS ACS0000001122222222222220000000000000000000000000   000000000000000000000000   000005020013100001111110000000070000001111111110000000000000000000000000SDG                 0045678912345671000000000SDG234567123451000000000
0337950E705US37950E7058000S01148202105120138382FH56                000000000005000000000 N                0 2N        GOVERNMENT NATL MTG  00000                                  0000000000000000B 0000000000000000000000SSET CL0SS A0SET CLASS ACS0000001122222222222220000000000000000000000000   000000000000000000000000   000005020013100001111110000000070000001111111110000000000000000000000000SDG                 0045678912345671000000000SDG234567123451000000000
0337950E705US37950E7058000S01148202105120190288G561                000000000005000000000 N                1  N        DESCRIPTION    +A000SGDGGHD332222       444AXNAL            0000000000000000  0000000000000000000000SSET CL0SS A0SET CLASS ACS0000001122222222222220000000000000000000000000   000000000000000000000000   000005020013100001111110000000070000001111111110000000000000000000000000SDG                 0045678912345671000000000SDG234567123451000000000
0337950E705US37950E7058000S01148202105120198888BAC0                000000000004000000000 N                0 2N        ZAIS CLO 14 LTD / ZA 00000  32                              0000000000000000B 0000000000000000000000SSET CL0SS A0SET CLASS ACS0000001122222222222220000000000000000000000000   000000000000000000000000   000005020013100001111110000000070000001111111110000000000000000000000000SDG                 0045678912345671000000000SDG234567123451000000000
0245409B206US45409B20600000S8763IQ HEDGE GLOBAL MACRO ETF                                   20210512000022090000000400000000000000 000000000000000000 00000000000000 000000000000000000 00000000000000 00000000000000000000000000 00000000000000 000000000000000000000000050000MCRO           YYY01D       00000000000000000000000000000000000000501000000009511BANK OF NEW YORK                                                    00000000000000000000000 0000000        0000000        00000000000000000000YYY
0345409B206US45409B20600000S87632021051201G32227AA1                000000000050000000000 N                0 2N        HPS LN MGMT 5-2015 L 00000                                  0000000000000000BN0000000111200000891219ASSET CL0SS A0SET CLASS ACS000000112222222222222000000003333333331111111USD000000009000000111111111USD000000502001310000111111000000007000000111111111000000600000006789123456USDGBPUSDGBP202009160004567891234567123456789USD123456712345112356789
0345409B206US45409B20600000S87632021051201G32227AB9                000000000050000000000 N                0 2N        HPS LN MGMT 5-2015 L 00000                                  0000000000000000BN0000000111200000891219ASSET CL0SS A0SET CLASS ACS000000112222222222222000000003333333331111111USD000000009000000111111111USD000000502001310000111111000000007000000111111111000000600000006789123456USDGBPUSDGBP202009160004567891234567123456789USD123456712345112356789
0345409B206US45409B20600000S87632021051201G3223BAA1                000000000050000000000 N                0 2N        HPS LN MGMT 7-2015 L 00000  27                              0000000000000000BN0000000111200000891219ASSET CL0SS A0SET CLASS ACS000000112222222222222000000003333333331111111USD000000009000000111111111USD000000502001310000111111000000007000000111111111000000600000006789123456USDGBPUSDGBP202009160004567891234567123456789USD123456712345112356789
0345409B206US45409B20600000S87632021051201G3223BAB9                000000000050000000000 N                0 2N        HPS LN MGMT 7-2015 L 00000  27                              0000000000000000BN0000000111200000891219ASSET CL0SS A0SET CLASS ACS000000112222222222222000000003333333331111111USD000000009000000111111111USD000000502001310000111111000000007000000111111111000000600000006789123456USDGBPUSDGBP202009160004567891234567123456789USD123456712345112356789
0237954Y632US37954Y632602S999629GLOBAL X FDS FUTURE ANALYTICS TECH ETF                      20210512000001090000000100000000000000 000000000000000000 00000000000000 000000000000000000 00000000000000 00000000000000000000000000 00000000000000 000000000000000000000000050000AIQ            YNY01F       00000000000000000000000000000000000000101000000050131BROWN BROTHERS AND HARRIMAN                                         00000000000000000000000 0000000        0000000        00000000000000000000YYY
0337954Y632US37954Y632602S999629202105120137954Y632                000000000005000000000 N AIQ            0 1Y        GLOBAL X FDS FUTURE ANALYTICS TECH ETF                      0000000000000000S 0000000000000000000000SSET CL0SS A0SET CLASS ACS0000001122222222222220000000000000000000000000   000000000000000000000000   000005020013100001111110000000070000001111111110000000000000000000000000SDG                 0045678912345671000000000SDG234567123451000000000
0274347B284US74347B284202S999785PROSHARES TR ULTRASHORT MSCI EMERGING MARKETS ETF NEW       20210512000023570000000500000000000000 000000000000000000 00000000000000 000000000000000000 00000000000000 00000000000000000000000000 00000000000000 000000000000000000000000025000EEV            YYY01D       00000000000000000000000000000000000000103020000050144JP MORGAN CHASE BANK                                                00000000000000000000000 0000000        0000000        00000000000000000000YYY
0374347B284US74347B284202S9997852021051201G0446NAJ3                000000000005000000000  X               1  N        DESCRIPTION   +A000SGDGGHD332222       444AXNAL             0000000000000000 N0000000000000000000000ASSET CL0SS A0SET CLASS ACS000000112222222222222000000003333333331111111USD000001009000000111111111USD000000502001310000111111000000007000000111111111000000600000006789123456USDGBPUSDGBP202004140004567891234567123456789USD123456712345112356789
0374347B284US74347B284202S9997852021051201G24668108                000000000005000000000  X               1  N        DESCRIPTION   +A000SGDGGHD332222       444AXNAL             0000000000000000 N0000000000000000000000ASSET CL0SS A0SET CLASS ACS000000112222222222222000000003333333331111111USD000001009000000111111111USD000000502001310000111111000000007000000111111111000000600000006789123456USDGBPUSDGBP202004140004567891234567123456789USD123456712345112356789
0374347B284US74347B284202S999785202105120174347B284                000000000005000000000   EEV            0 1Y        PROSHARES TR ULTRASHORT MSCI EMERGING MARKETS ETF NEW       0000000000000000SN0000000000000000000000ASSET CL0SS A0SET CLASS ACS000000112222222222222000000003333333331111111USD000001009000000111111111USD000000502001310000111111000000007000000111111111000000600000006789123456USDGBPUSDGBP202004140004567891234567123456789USD123456712345112356789
0374347B284US74347B284202S9997852021051203US33737J1170             000000000005000000000   FEP            0 1Y        FIRST TRUST EUROPE ALPHADEX FUND                            0000000000000000SN0000000000000000000000ASSET CL0SS A0SET CLASS ACS000000112222222222222000000003333333331111111USD000001009000000111111111USD000000502001310000111111000000007000000111111111000000600000006789123456USDGBPUSDGBP202004140004567891234567123456789USD123456712345112356789
0374347B284US74347B284202S9997852021051203US9117171069             000000000005000000000   USCI           0 1Y        UNITED STS COMMODITY INDEX FD                               0000000000000000SN0000000000000000000000ASSET CL0SS A0SET CLASS ACS000000112222222222222000000003333333331111111USD000001009000000111111111USD000000502001310000111111000000007000000111111111000000600000006789123456USDGBPUSDGBP202004140004567891234567123456789USD123456712345112356789
0246137V498US46137V498603S992200INVESCO S&P SMALLCAP MOMENTUM ETF                           20210512000022090000002500000000000000 000000000000000000 00000000000000 000000000000000000 00000000000000 00000000000000000000000000 00000000000000 000000000000000000000000050000XSMO           YYY01D       00000000000000000000000000000000000000101000000009511BANK OF NEW YORK                                                    00000000000000000000000 0000000        0000000        00000000000000000000YYY
0346137V498US46137V498603S9922002021051201C01036AA7                000000000050000000000 N                0 2N        AIR CDA 2013-1 PASS  04125  25                              0000000000000000BN0000000111200000000200ASSET CL0SS A0SET CLASS ACS000000112222222222222000000003333333331111111USD000000009000000111111111USD000000502001310000111111000000007000000111111111000000600000006789123456USDGBPUSDGBP202009160004567891234567123456789USD123456712345112356789
0346137V498US46137V498603S9922002021051201G0487TAS0                000000000050000000000 N                0 2N        APIDOS CLO XV / APID 00000  31                              0000000000000000BN0000000111200000000200ASSET CL0SS A0SET CLASS ACS000000112222222222222000000003333333331111111USD000000009000000111111111USD000000502001310000111111000000007000000111111111000000600000006789123456USDGBPUSDGBP202009160004567891234567123456789USD123456712345112356789
0346137V498US46137V498603S9922002021051201G0487TAT8                000000000050000000000 N                0 2N        APIDOS CLO XV / APID 00000  31                              0000000000000000BN0000000111200000000200ASSET CL0SS A0SET CLASS ACS000000112222222222222000000003333333331111111USD000000009000000111111111USD000000502001310000111111000000007000000111111111000000600000006789123456USDGBPUSDGBP202009160004567891234567123456789USD123456712345112356789
0346137V498US46137V498603S9922002021051201G0487UAC2                000000000050000000000 N                0 2N        APIDOS CLO XV        00000  31                              0000000000000000BN0000000111200000000200ASSET CL0SS A0SET CLASS ACS000000112222222222222000000003333333331111111USD000000009000000111111111USD000000502001310000111111000000007000000111111111000000600000006789123456USDGBPUSDGBP202009160004567891234567123456789USD123456712345112356789
0346137V498US46137V498603S9922002021051201G0487UAD0                000000000050000000000 N                0 2N        APIDOS CLO XV        00000  31                              0000000000000000BN0000000111200000000200ASSET CL0SS A0SET CLASS ACS000000112222222222222000000003333333331111111USD000000009000000111111111USD000000502001310000111111000000007000000111111111000000600000006789123456USDGBPUSDGBP202009160004567891234567123456789USD123456712345112356789
0346137V498US46137V498603S9922002021051201G1984RAC5                000000000005000000000 N                0 2N        C-BASS CBO XV LTD /  00000  41                              0000000000000000BN0000000000000000000200ASSET CL0SS A0SET CLASS ACS000000112222222222222000000003333333331111111USD000000009000000111111111USD000000502001310000111111000000007000000111111111000000600000006789123456USDGBPUSDGBP202009160004567891234567123456789USD123456712345112356789
0346137V498US46137V498603S9922002021051201G1984RAD3                000000000005000000000 N                0 2N        C-BASS CBO XV LTD /  00000  41                              0000000000000000BN0000000111200000000200ASSET CL0SS A0SET CLASS ACS000000112222222222222000000003333333331111111USD000000009000000111111111USD000000502001310000111111000000007000000111111111000000600000006789123456USDGBPUSDGBP202009160004567891234567123456789USD123456712345112356789
0346137V498US46137V498603S9922002021051201G1985AAA5                000000000005000000000 N                0 2N        C-BASS CBO IX LTD /  00748  39                              0000000000000000BN0000000111200000000200ASSET CL0SS A0SET CLASS ACS000000112222222222222000000003333333331111111USD000000009000000111111111USD000000502001310000111111000000007000000111111111000000600000006789123456USDGBPUSDGBP202009160004567891234567123456789USD123456712345112356789
0346137V498US46137V498603S9922002021051201G1985AAB3                000000000005000000000 N                0 2N        C-BASS CBO IX LTD /  00988  39                              0000000000000000BN0000000111200000000200ASSET CL0SS A0SET CLASS ACS000000112222222222222000000003333333331111111USD000000009000000111111111USD000000502001310000111111000000007000000111111111000000600000006789123456USDGBPUSDGBP202009160004567891234567123456789USD123456712345112356789
0346137V498US46137V498603S9922002021051201G21882AH1                000000000050000000000 N                0 2N        CLARIS IV LIMITED    00000  50                              0000000000000000BN0000000111200000000200ASSET CL0SS A0SET CLASS ACS000000112222222222222000000003333333331111111USD000000009000000111111111USD000000502001310000111111000000007000000111111111000000600000006789123456USDGBPUSDGBP202009160004567891234567123456789USD123456712345112356789
0346137V498US46137V498603S9922002021051201G21882AJ7                000000000050000000000 N                0 2N        CLARIS IV LIMITED    00000  50                              0000000000000000BN0000000111200000000200ASSET CL0SS A0SET CLASS ACS000000112222222222222000000003333333331111111USD000000009000000111111111USD000000502001310000111111000000007000000111111111000000600000006789123456USDGBPUSDGBP202009160004567891234567123456789USD123456712345112356789
0346137V498US46137V498603S9922002021051201G21882AK4                000000000050000000000 N                0 2N        CLARIS IV LIMITED    00000  50                              0000000000000000BN0000000111200000000200ASSET CL0SS A0SET CLASS ACS000000112222222222222000000003333333331111111USD000000009000000111111111USD000000502001310000111111000000007000000111111111000000600000006789123456USDGBPUSDGBP202009160004567891234567123456789USD123456712345112356789
0346137V498US46137V498603S9922002021051201G21882AL2                000000000050000000000 N                0 2N        CLARIS IV LIMITED    00000  50                              0000000000000000BN0000000111200000000200ASSET CL0SS A0SET CLASS ACS000000112222222222222000000003333333331111111USD000000009000000111111111USD000000502001310000111111000000007000000111111111000000600000006789123456USDGBPUSDGBP202009160004567891234567123456789USD123456712345112356789
0346137V498US46137V498603S9922002021051201G21882AM0                000000000050000000000 N                0 2N        CLARIS IV LIMITED    00000  50                              0000000000000000BN0000000111200000000200ASSET CL0SS A0SET CLASS ACS000000112222222222222000000003333333331111111USD000000009000000111111111USD000000502001310000111111000000007000000111111111000000600000006789123456USDGBPUSDGBP202009160004567891234567123456789USD123456712345112356789
0346137V498US46137V498603S9922002021051201G21882AN8                000000000050000000000 N                0 2N        CLARIS IV LIMITED    00000  51                              0000000000000000BN0000000111200000000200ASSET CL0SS A0SET CLASS ACS000000112222222222222000000003333333331111111USD000000009000000111111111USD000000502001310000111111000000007000000111111111000000600000006789123456USDGBPUSDGBP202009160004567891234567123456789USD123456712345112356789
0346137V498US46137V498603S9922002021051201G3220TAA5                000000000005000000000 N                0 2N        HPS LN MGMT 11-2017  00000  30                              0000000000000000BN0000000000000000000200ASSET CL0SS A0SET CLASS ACS000000112222222222222000000003333333331111111USD000000009000000111111111USD000000502001310000111111000000007000000111111111000000600000006789123456USDGBPUSDGBP202009160004567891234567123456789USD123456712345112356789
0346137V498US46137V498603S9922002021051201G3223BAA1                000000000005000000000 N                0 2N        HPS LN MGMT 7-2015 L 00000  27                              0000000000000000BN0000000000000000000200ASSET CL0SS A0SET CLASS ACS000000112222222222222000000003333333331111111USD000000009000000111111111USD000000502001310000111111000000007000000111111111000000600000006789123456USDGBPUSDGBP202009160004567891234567123456789USD123456712345112356789
0346137V498US46137V498603S9922002021051201G3223BAB9                000000000005000000000 N                0 2N        HPS LN MGMT 7-2015 L 00000  27                              0000000000000000BN0000000111200000000200ASSET CL0SS A0SET CLASS ACS000000112222222222222000000003333333331111111USD000000009000000111111111USD000000502001310000111111000000007000000111111111000000600000006789123456USDGBPUSDGBP202009160004567891234567123456789USD123456712345112356789
0346137V498US46137V498603S9922002021051201G371E2AA6                000000000050000000000 N                0 2N        FRESNILLO PLC, LONDO 05500  23                              0000000000000000BN0000000111200000000200ASSET CL0SS A0SET CLASS ACS000000112222222222222000000003333333331111111USD000000009000000111111111USD000000502001310000111111000000007000000111111111000000600000006789123456USDGBPUSDGBP202009160004567891234567123456789USD123456712345112356789
0346137V498US46137V498603S992200202105120137950E416                000000000005000000000 N SOCL           0 2N        GLOBAL X FDS GLOBAL X SOCIAL MEDIA INDEX ETF                0000000000000000SN0000000000000000000000ASSET CL0SS A0SET CLASS ACS000000112222222222222000000003333333331111111USD000000009000000111111111USD000000502001310000111111000000007000000111111111000000600000006789123456USDGBPUSDGBP202009160004567891234567123456789USD123456712345112356789
0346137V498US46137V498603S992200202105120137950E416                000000000050000000000 N SOCL           0 2N        GLOBAL X FDS GLOBAL X SOCIAL MEDIA INDEX ETF                0000000000000000SN0000000000000000000000ASSET CL0SS A0SET CLASS ACS000000112222222222222000000003333333331111111USD000000009000000111111111USD000000502001310000111111000000007000000111111111000000600000006789123456USDGBPUSDGBP202009160004567891234567123456789USD123456712345112356789
0346137V498US46137V498603S992200202105120137950E549                000000000005000000000 N SDIV           0 2N        GLOBAL X FDS GLOBAL X SUPERDIVIDEND ETF                     0000000000000000SN0000000000000000000000ASSET CL0SS A0SET CLASS ACS000000112222222222222000000003333333331111111USD000000009000000111111111USD000000502001310000111111000000007000000111111111000000600000006789123456USDGBPUSDGBP202009160004567891234567123456789USD123456712345112356789
0346137V498US46137V498603S992200202105120137950E549                000000000050000000000 N SDIV           0 2N        GLOBAL X FDS GLOBAL X SUPERDIVIDEND ETF                     0000000000000000SN0000000000000000000000ASSET CL0SS A0SET CLASS ACS000000112222222222222000000003333333331111111USD000000009000000111111111USD000000502001310000111111000000007000000111111111000000600000006789123456USDGBPUSDGBP202009160004567891234567123456789USD123456712345112356789
0346137V498US46137V498603S992200202105120137950E705                000000000050000000000 N CHII           0 2N        GLOBAL X  MSCI CHINA INDUSTRIALS ETF                        0000000000000000SN0000000000000000000000ASSET CL0SS A0SET CLASS ACS000000112222222222222000000003333333331111111USD000000009000000111111111USD000000502001310000111111000000007000000111111111000000600000006789123456USDGBPUSDGBP202009160004567891234567123456789USD123456712345112356789
0346137V498US46137V498603S992200202105120192189H508                000000000050000000000 N MAAX           0 1Y        VANECK VECTORS ETF TR MUN ALLOCATION ETF                    0000000000000000SN0000000000000000000000ASSET CL0SS A0SET CLASS ACS000000112222222222222000000003333333331111111USD000000009000000111111111USD000000502001310000111111000000007000000111111111000000600000006789123456USDGBPUSDGBP202009160004567891234567123456789USD123456712345112356789
02381430230US381430230903S994644GOLDMAN SACHS ETF TR ACCESS ULTRA SHORT BD ETF PRIC BSK (DE)20210512000022090000000300000000000000 000000000000000000 00000000000000 000000000000000000 00000000000000 00000000000000000000000000 00000000000000 000000000000000000000000025000GSST           YYY01D       00000000000000000000000000000000000000201000000009511BANK OF NEW YORK                                                    00000000000000000000000 0000000        0000000        00000000000000000000YYY
03381430230US381430230903S994644202105120138382FWU4                000000000005000000000 N                0 2N        GOVERNMENT NATL MTG  00000  50                              0000000000000000BN0000000000000000000000ASSET CLASS ASSET CLASS ACS000000112222222222222000000003333333331111111USD000000009000000111111111USD000000201906250000111111000000007000000111111111000000600000006789123456USDGBPUSDGBP201906100004567891234567123456789USD123456712345112356789
03381430230US381430230903S9946442021051203US33737J2400             000000000005000000000 N FHK            0 1Y        FIRST TRUST HONG KONG ALPHADEX FUND                         0000000000000000SN0000000000000000000000ASSET CLASS ASSET CLASS ACS000000112222222222222000000003333333331111111USD000000009000000111111111USD000000201906250000111111000000007000000111111111000000600000006789123456USDGBPUSDGBP201906100004567891234567123456789USD123456712345112356789
03381430230US381430230903S9946442021051204US33737J240025460E4      000000000005000000000 N FHK            0 1Y        FIRST TRUST HONG KONG ALPHADEX FUND                         0000000000000000SN0000000000000000000000ASSET CLASS ASSET CLASS ACS000000112222222222222000000003333333331111111USD000000009000000111111111USD000000201906250000111111000000007000000111111111000000600000006789123456USDGBPUSDGBP201906100004567891234567123456789USD123456712345112356789
0225460E497US25460E497003S994925DIREXION SHS ETF TR DAILY COMMUN SVCS INDEX BULL 3X SHS (DE)20210512000022090000001000000000000000 000000000000000000 00000000000000 000000000000000000 00000000000000 00000000000000000000000000 00000000000000 000000000000000000000000050000TAWK           YYY01D       00000000000000000000000000000000000000102030000009511BANK OF NEW YORK                                                    00000000000000000000000 0000000        0000000        00000000000000000000YYY
0325460E497US25460E497003S9949252021051201C01037AA5                000000000050000000000 N                0 2N        AIR CDA 2015-1 PASS  03600  27                              0000000000000000BN0000000111200000001219ASSET CL0SS A0SET CLASS ACS000000112222222222222000000003333333331111111USD000000009000000111111111USD000000502001310000111111000000007000000111111111000000600000006789123456USDGBPUSDGBP202009160004567891234567123456789USD123456712345112356789
0325460E497US25460E497003S9949252021051201G0487UAD0                000000000050000000000 N                0 2N        APIDOS CLO XV        00000  31                              0000000000000000BN0000000111200000001219ASSET CL0SS A0SET CLASS ACS000000112222222222222000000003333333331111111USD000000009000000111111111USD000000502001310000111111000000007000000111111111000000600000006789123456USDGBPUSDGBP202009160004567891234567123456789USD123456712345112356789
0325460E497US25460E497003S9949252021051201G21882AN8                000000000050000000000 N                0 2N        CLARIS IV LIMITED    00000  51                              0000000000000000BN0000000111200000001219ASSET CL0SS A0SET CLASS ACS000000112222222222222000000003333333331111111USD000000009000000111111111USD000000502001310000111111000000007000000111111111000000600000006789123456USDGBPUSDGBP202009160004567891234567123456789USD123456712345112356789
0325460E497US25460E497003S9949252021051201G371E2AA6                000000000050000000000 N                0 2N        FRESNILLO PLC, LONDO 05500  23                              0000000000000000BN0000000111200000001219ASSET CL0SS A0SET CLASS ACS000000112222222222222000000003333333331111111USD000000009000000111111111USD000000502001310000111111000000007000000111111111000000600000006789123456USDGBPUSDGBP202009160004567891234567123456789USD123456712345112356789
0325460E497US25460E497003S9949252021051201013092AE1                000000000050000000000 N                0 2N        ALBERTSONS COS INC / 04875  30                              0000000000000000BN0000000111200000001219ASSET CL0SS A0SET CLASS ACS000000112222222222222000000003333333331111111USD000000009000000111111111USD000000502001310000111111000000007000000111111111000000600000006789123456USDGBPUSDGBP202009160004567891234567123456789USD123456712345112356789
0325460E497US25460E497003S9949252021051201013092AF8                000000000050000000000 N                0 2N        ALBERTSONS COS INC / 00000                                  0000000000000000BN0000000111200000001219ASSET CL0SS A0SET CLASS ACS000000112222222222222000000003333333331111111USD000000009000000111111111USD000000502001310000111111000000007000000111111111000000600000006789123456USDGBPUSDGBP202009160004567891234567123456789USD123456712345112356789
0325460E497US25460E497003S994925202105120125460E497                000000000050000000000 N TAWK           0 1Y        DIREXION SHS ETF TR DAILY COMMUN SVCS INDEX BULL 3X SHS (DE)0000000000000000SN0000000000000000000000ASSET CL0SS A0SET CLASS ACS000000112222222222222000000003333333331111111USD000000009000000111111111USD000000502001310000111111000000007000000111111111000000600000006789123456USDGBPUSDGBP202009160004567891234567123456789USD123456712345112356789
0325460E497US25460E497003S994925202105120137950E416                000000000050000000000 N SOCL           0 2N        GLOBAL X FDS GLOBAL X SOCIAL MEDIA INDEX ETF                0000000000000000SN0000000000000000000000ASSET CL0SS A0SET CLASS ACS000000112222222222222000000003333333331111111USD000000009000000111111111USD000000502001310000111111000000007000000111111111000000600000006789123456USDGBPUSDGBP202009160004567891234567123456789USD123456712345112356789
0325460E497US25460E497003S994925202105120137950E549                000000000050000000000 N SDIV           0 2N        GLOBAL X FDS GLOBAL X SUPERDIVIDEND ETF                     0000000000000000SN0000000000000000000000ASSET CL0SS A0SET CLASS ACS000000112222222222222000000003333333331111111USD000000009000000111111111USD000000502001310000111111000000007000000111111111000000600000006789123456USDGBPUSDGBP202009160004567891234567123456789USD123456712345112356789
0325460E497US25460E497003S994925202105120137950E705                000000000050000000000 N CHII           0 2N        GLOBAL X  MSCI CHINA INDUSTRIALS ETF                        0000000000000000SN0000000000000000000000ASSET CL0SS A0SET CLASS ACS000000112222222222222000000003333333331111111USD000000009000000111111111USD000000502001310000111111000000007000000111111111000000600000006789123456USDGBPUSDGBP202009160004567891234567123456789USD123456712345112356789
02316092436US316092436703S995641FIDELITY COVINGTON TR MSCI INDL INDEX ETF REDEEM            20210512000027670000000100000000000000 000000000000000000 00000000000000 000000000000000000 00000000000000 00000000000000000000000000 00000000000000 000000000000000000000000050000FIDURD         NNY01D       000000000000000000000000000000000000001010000                                                                            00000000000000000000000 0000000        0000000        00000000000000000000YYY
03316092436US316092436703S995641202105120137950E499                000000000005000000000   SOIL           0 1Y        GLOBAL X FERTILIZERS/POTASH ETF                             0000000000000000S 0000000000000000000000ASSET CLASS ASSET CLASS ACS000000112222222222222000000003333333331111111USD000000009000000111111111USD000000502001310000111111000000007000000111111111000000600000006789123456USDGBPUSDGBP202004140004567891234567123456789USD123456712345112356789
02316092410US316092410203S995690FIDELITY COVINGTON TR MSCI UTILITIES INDEX ETF REDEEM       20210512000027670000005000000000000000 000000000000000000 00000000000000 000000000000000000 00000000000000 00000000000000000000000000 00000000000000 000000000000000000000000050000FUTYRD         NNY01D       000000000000000000000000000000000000001010000                                                                            00000000000000000000000 0000000        0000000        00000000000000000000YYY
03316092410US316092410203S995690202105120100214Q708                000000000005000000000 N ARKF           0 1Y        ARK ETF TR FINTECH INNOVATION ETF                           0000000000000000S 0000000000000000000000ASSET CL0SS A0SET CLASS ACS000000112222222222222000000003333333331111111USD000000009000000111111111USD000000502001310000111111000000007000000111111111000000600000006789123456USDGBPUSDGBP202004140004567891234567123456789USD123456712345112356789
03316092410US316092410203S995690202105120100214Q708                000000000005000000000 N ARKF           0 1Y        ARK ETF TR FINTECH INNOVATION ETF                           0000000000000000S 0000000000000000000000ASSET CL0SS A0SET CLASS ACS000000112222222222222000000003333333331111111USD000000009000000111111111   000000502001310000111111000000007000000111111111000000600000006789123456USDGBPUSDGBP202004140004567891234567123456789USD123456712345112356789
03316092410US316092410203S9956902021051201233051408                000000000005000000000 N DBGR           0 2N        XTRACKERS MSCI GERMANY HEDGED EQUITY ETF                    0000000000000000SN0000000000000000000000ASSET CL0SS A0SET CLASS ACS000000112222222222222000000003333333331111111USD000000009000000111111111USD000000000000000000000000000000007000000111111111000000600000006789123456USDGBPUSDGBP202004140004567891234567123456789USD123456712345112356789
03316092410US316092410203S9956902021051201233051408                000000000005000000000 N DBGR           0 2N        XTRACKERS MSCI GERMANY HEDGED EQUITY ETF                    0000000000000000SN0000000000000000000000ASSET CL0SS A0SET CLASS ACS000000112222222222222000000003333333331111111USD000000009000000111111111USD000000502001310000111111000000007000000111111111000000600000006789123456USDGBPUSDGBP202004140004567891234567123456789USD123456712345112356789
03316092410US316092410203S9956902021051201233051408                000000000005000000000 N DBGR           0 2N        XTRACKERS MSCI GERMANY HEDGED EQUITY ETF                    0000000000000000SN0000000000000000000000ASSET CL0SS A0SET CLASS ACS000000112222222222222000000003333333331111111USD000000009000000111111111USD000000502001310000111111000000007000000111111111000000600000006789123456USDGBPUSDGBP202004140004567891234567123456789USD123456712345112356789
03316092410US316092410203S9956902021051201233051507                000000000005000000000 N DBJP           0 1Y        XTRACKERS MSCI JAPAN HEDGED EQUITY ETF (DE)                 0000000000000000SN0000000000000000000000ASSET CL0SS A0SET CLASS ACS000000112222222222222000000003333333331111111USD000000009000000111111111USD000000502001310000111111000000007000000111111111000000600000006789123456USDGBPUSDGBP202004140004567891234567123456789USD123456712345112356789
03316092410US316092410203S9956902021051201233051507                000000000005000000000 N DBJP           0 1Y        XTRACKERS MSCI JAPAN HEDGED EQUITY ETF (DE)                 0000000000000000SN0000000000000000000000ASSET CL0SS A0SET CLASS ACS000000112222222222222000000003333333331111111USD000000009000000111111111   000000502001310000111111000000007000000111111111000000600000006789123456USDGBPUSDGBP202004140004567891234567123456789USD123456712345112356789
03316092410US316092410203S995690202105120125459W862                000000000005000000000 N SPXL           0 1Y        DIREXION DAILY S&P 500 BULL 3X SHARES                       0000000000000000S 0000000000000000000000ASSET CL0SS A0SET CLASS ACS000000112222222222222000000003333333331111111USD000000009000000111111111USD000000502001310000111111000000007000000111111111000000600000006789123456USDGBPUSDGBP202004140004567891234567123456789USD123456712345112356789
03316092410US316092410203S995690202105120125459W862                000000000005000000000 N SPXL           0 1Y        DIREXION DAILY S&P 500 BULL 3X SHARES                       0000000000000000SN0000000000000000000000ASSET CL0SS A0SET CLASS ACS000000112222222222222000000003333333331111111USD000000009000000111111111USD000000502001310000111111000000007000000111111111000000600000006789123456USDGBPUSDGBP202004140004567890000000123456789USD123456712345112356789
03316092410US316092410203S995690202105120125459W862                000000000005000000000 N SPXL           0 1Y        DIREXION DAILY S&P 500 BULL 3X SHARES                       0000000000000000S 0000000000000000000000ASSET CL0SS A0SET CLASS ACS000000112222222222222000000003333333331111111   000000009000000111111111USD000000502001310000111111000000007000000111111111000000600000006789123456USDGBPUSDGBP202004140004567891234567123456789USD123456712345112356789
03316092410US316092410203S995690202105120125459Y678                000000000005000000000   TMV            0 1Y        DIREXION DAILY 20+ YR TSY BEAR 3X SHS                       0000000000000000SN0000000000000000000000ASSET CL0SS A0SET CLASS ACS000000112222222222222000000003333333331111111USD000000009000000111111111USD000000502001310000111111000000007000000111111111000000600000006789123456USDGBPUSDGBP202004140004567891234567123456789USD123456712345112356789
03316092410US316092410203S995690202105120125459Y678                000000000005000000000 N TMV            0 1Y        DIREXION DAILY 20+ YR TSY BEAR 3X SHS                       0000000000000000SN0000000000000000000000ASSET CL0SS A0SET CLASS ACS000000112222222222222000000003333333331111111USD000000009000000111111111USD000000502001310000111111000000000000000000000000000000600000006789123456USDGBPUSDGBP202004140004567891234567123456789USD123456712345112356789
03316092410US316092410203S995690202105120125459Y769                000000000005000000000 N KNOW           0 1Y        DIREXION ALL CAP INSIDER SENTIMENT SHARES                   0000000000000000SN0000000000000000000000ASSET CL0SS A0SET CLASS ACS000000112222222222222000000003333333331111111USD000000009000000111111111USD000000502001310000111111000000000000000000000000000000600000006789123456USDGBPUSDGBP202004140004567891234567123456789USD123456712345112356789
03316092410US316092410203S995690202105120125459Y769                000000000005000000000 N KNOW           0 1Y        DIREXION ALL CAP INSIDER SENTIMENT SHARES                   0000000000000000SN0000000000000000000000ASSET CL0SS A0SET CLASS ACS000000112222222222222000000003333333331111111USD000000009000000111111111USD000000502001310000111111000000007000000111111111000000600000006789123456USDGBPUSDGBP202004140004567890000000123456789USD123456712345112356789
03316092410US316092410203S995690202105120125459Y769                000000000005000000000 N KNOW           0 1Y        DIREXION ALL CAP INSIDER SENTIMENT SHARES                   0000000000000000SN0000000000000000000000ASSET CL0SS A0SET CLASS ACS000000112222222222222000000003333333331111111   000000009000000111111111USD000000502001310000111111000000007000000111111111000000600000006789123456USDGBPUSDGBP202004140004567891234567123456789USD123456712345112356789
03316092410US316092410203S995690202105120125460E463                000000000005000000000 N RWIU           0 1Y        DIREXION SHS ETF TR   FTSE RUSSELL INTL OVER US ETF         0000000000000000S 0000000000000000000000ASSET CL0SS A0SET CLASS ACS000000112222222222222000000003333333331111111USD000000009000000111111111USD000000502001310000111111000000007000000111111111000000600000006789123456USDGBPUSDGBP202004140004567891234567123456789USD123456712345112356789
03316092410US316092410203S995690202105120125460E463                000000000005000000000 N RWIU           0 1Y        DIREXION SHS ETF TR   FTSE RUSSELL INTL OVER US ETF         0000000000000000SN0000000000000000000000ASSET CL0SS A0SET CLASS ACS000000112222222222222000000003333333331111111USD000000009000000111111111USD000000502001310000111111000000007000000111111111000000600000006789123456USDGBPUSDGBP202004140004567891234567000000000USD123456712345112356789
03316092410US316092410203S9956902021051201316092410                000000000005000000000 N FUTYRD         0 2N        FIDELITY COVINGTON TR MSCI UTILITIES INDEX ETF REDEEM       0000000000000000SN0000000000000000000000ASSET CL0SS A0SET CLASS ACS000000112222222222222000000003333333331111111USD000000009000000111111111USD000000502001310000111111000000007000000111111111000000600000006789123456USDGBPUSDGBP202004140004567891234567123456789USD123456712345112356789
03316092410US316092410203S9956902021051201316092410                000000000005000000000 N FUTYRD         0 2N        FIDELITY COVINGTON TR MSCI UTILITIES INDEX ETF REDEEM       0000000000000000SN0000000000000000000000ASSET CL0SS A0SET CLASS ACS000000112222222222222000000003333333331111111USD000000009000000111111111USD000000502001310000111111000000007000000111111111000000600000006789123456USDGBPUSDGBP202004140004567891234567123456789USD123456712345112356789
03316092410US316092410203S9956902021051201316092410                000000000005000000000 N FUTYRD         0 2N        FIDELITY COVINGTON TR MSCI UTILITIES INDEX ETF REDEEM       0000000000000000SN0000000000000000000000ASSET CL0SS A0SET CLASS ACS000000112222222222222000000003333333331111111USD000000009000000111111111USD000000502001310000111111000000007000000111111111000000600000006789123456USDGBPUSDGBP202004140004567891234567123456789USD123456712345112356789
03316092410US316092410203S9956902021051201316092410                000000000005000000000 N FUTYRD         0 2N        FIDELITY COVINGTON TR MSCI UTILITIES INDEX ETF REDEEM       0000000000000000SN0000000000000000000000ASSET CL0SS A0SET CLASS ACS000000112222222222222000000003333333331111111USD000000009000000111111111USD000000502001310000111111000000007000000111111111000000600000006789123456USDGBPUSDGBP202004140004567891234567123456789USD123456712345112356789
03316092410US316092410203S9956902021051201316092410                000000000005000000000 N FUTYRD         0 2N        FIDELITY COVINGTON TR MSCI UTILITIES INDEX ETF REDEEM       0000000000000000SN0000000000000000000000ASSET CL0SS A0SET CLASS ACS000000112222222222222000000003333333331111111USD000000009000000111111111USD000000502001310000111111000000007000000111111111000000600000006789123456USDGBPUSDGBP202004140004567891234567123456789USD123456712345112356789
03316092410US316092410203S9956902021051201316092410                000000000005000000000 N FUTYRD         0 2N        FIDELITY COVINGTON TR MSCI UTILITIES INDEX ETF REDEEM       0000000000000000S 0000000000000000000000ASSET CL0SS A0SET CLASS ACS000000112222222222222000000003333333331111111USD000000009000000111111111USD000000502001310000111111000000007000000111111111000000600000006789123456USDGBPUSDGBP202004140004567891234567123456789USD123456712345112356789
03316092410US316092410203S995690202105120137950E333                000000000005000000000 N SPFF           0 1Y        GLOBAL X SUPERINCOME PREFERRED ETF                          0000000000000000S 0000000000000000000000ASSET CL0SS A0SET CLASS ACS000000112222222222222000000003333333331111111USD000000009000000111111111USD000000502001310000111111000000000000000000000000000000600000006789123456USDGBPUSDGBP202004140004567891234567123456789USD123456712345112356789
03316092410US316092410203S995690202105120137950E333                000000000005000000000 N SPFF           0 1Y        GLOBAL X SUPERINCOME PREFERRED ETF                          0000000000000000S 0000000000000000000000ASSET CL0SS A0SET CLASS ACS000000112222222222222000000003333333331111111   000000009000000111111111USD000000502001310000111111000000007000000111111111000000600000006789123456USDGBPUSDGBP202004140004567891234567123456789USD123456712345112356789
03316092410US316092410203S995690202105120137950E341                000000000005000000000 N GURU           0 1Y        GLOBAL X GURU INDEX ETF                                     0000000000000000SN0000000000000000000000ASSET CL0SS A0SET CLASS ACS000000112222222222222000000003333333331111111USD000000000000000000000000USD000000502001310000111111000000007000000111111111000000600000006789123456USDGBPUSDGBP202004140004567891234567123456789USD123456712345112356789
03316092410US316092410203S995690202105120137950E341                000000000005000000000 N GURU           0 1Y        GLOBAL X GURU INDEX ETF                                     0000000000000000SN0000000000000000000000ASSET CL0SS A0SET CLASS ACS000000112222222222222000000003333333331111111USD000000009000000111111111USD000000502001310000111111000000007000000111111111000000600000006789123456USDGBPUSDGBP202004140004567891234567123456789USD123456712345112356789
03316092410US316092410203S995690202105120137950E416                000000000005000000000 N SOCL           0 2N        GLOBAL X FDS GLOBAL X SOCIAL MEDIA INDEX ETF                0000000000000000S 0000000000000000000000ASSET CL0SS A0SET CLASS ACS000000112222222222222000000003333333331111111USD000000009000000111111111USD000000502001310000111111000000007000000111111111000000600000006789123456USDGBPUSDGBP202004140004567891234567123456789USD123456712345112356789
03316092410US316092410203S995690202105120137950E549                000000000005000000000 N SDIV           0 2N        GLOBAL X FDS GLOBAL X SUPERDIVIDEND ETF                     0000000000000000S 0000000000000000000000ASSET CL0SS A0SET CLASS ACS000000112222222222222000000003333333331111111USD000000009000000111111111USD000000502001310000111111000000007000000111111111000000600000006789123456USDGBPUSDGBP202004140004567891234567123456789USD123456712345112356789
03316092410US316092410203S995690202105120137950E549                000000000005000000000 N SDIV           0 2N        GLOBAL X FDS GLOBAL X SUPERDIVIDEND ETF                     0000000000000000S 0000000000000000000000ASSET CL0SS A0SET CLASS ACS000000112222222222222000000003333333331111111USD000000009000000111111111USD000000000000000000000000000000007000000111111111000000600000006789123456USDGBPUSDGBP202004140004567891234567123456789USD123456712345112356789
03316092410US316092410203S995690202105120174347W114                000000000005000000000 N ZSL            0 1Y        PROSHARES ULTRASHORT SILVER                                 0000000000000000S 0000000000000000000000ASSET CL0SS A0SET CLASS ACS000000112222222222222000000003333333331111111USD000000009000000111111111USD000000000000000000000000000000007000000111111111000000600000006789123456USDGBPUSDGBP202004140004567891234567123456789USD123456712345112356789
03316092410US316092410203S995690202105120174347W114                000000000005000000000 N ZSL            0 1Y        PROSHARES ULTRASHORT SILVER                                 0000000000000000S 0000000000000000000000ASSET CL0SS A0SET CLASS ACS000000112222222222222000000003333333331111111USD000000009000000111111111USD000000502001310000111111000000007000000111111111000000600000006789123456USDGBPUSDGBP202004140004567891234567123456789USD123456712345112356789
03316092410US316092410203S995690202105120192189H508                000000000005000000000 N MAAX           0 1Y        VANECK VECTORS ETF TR MUN ALLOCATION ETF                    0000000000000000SN0000000000000000000000ASSET CL0SS A0SET CLASS ACS000000112222222222222000000003333333331111111USD000000009000000111111111USD000000502001310000111111000000007000000111111111000000600000006789123456USDGBPUSDGBP202004140004567891234567123456789USD123456712345112356789
03316092410US316092410203S995690202105120192189H508                000000000005000000000 N MAAX           0 1Y        VANECK VECTORS ETF TR MUN ALLOCATION ETF                    0000000000000000SN0000000000000000000000ASSET CL0SS A0SET CLASS ACS000000112222222222222000000003333333331111111USD000000009000000111111111   000000502001310000111111000000007000000111111111000000600000006789123456USDGBPUSDGBP202004140004567891234567123456789USD123456712345112356789
03316092410US316092410203S995690202105120192189H508                000000000005000000000 N MAAX           0 1Y        VANECK VECTORS ETF TR MUN ALLOCATION ETF                    0000000000000000SN0000000000000000000000ASSET CL0SS A0SET CLASS ACS000000112222222222222000000003333333331111111USD000000009000000111111111USD000000502001310000111111000000007000000111111111000000600000006789123456USDGBPUSDGBP202004140004567891234567123456789USD123456712345112356789
03316092410US316092410203S995690202105120192189H508                000000000005000000000 N MAAX           0 1Y        VANECK VECTORS ETF TR MUN ALLOCATION ETF                    0000000000000000S 0000000000000000000000ASSET CL0SS A0SET CLASS ACS000000112222222222222000000003333333331111111USD000000009000000111111111USD000000502001310000111111000000007000000111111111000000600000006789123456USDGBPUSDGBP202004140004567891234567123456789USD123456712345112356789
03316092410US316092410203S9956902021051203US92189H5081             000000000002000000000 N MAAX           0 1Y        VANECK VECTORS ETF TR MUN ALLOCATION ETF                    0000000000000000SN0000000000000000000000ASSET CL0SS A0SET CLASS ACS000000112222222222222000000003333333331111111USD000000009000000111111111USD000000502001310000111111000000007000000111111111000000600000006789123456USDGBPUSDGBP202004140004567891234567000000000USD123456712345112356789
03316092410US316092410203S9956902021051203US92189H5081             000000000008000000000 N MAAX           0 1Y        VANECK VECTORS ETF TR MUN ALLOCATION ETF                    0000000000000000SN0000000000000000000000ASSET CL0SS A0SET CLASS ACS000000112222222222222000000003333333331111111USD000000009000000111111111USD000000502001310000111111000000007000000111111111000000600000006789123456USDGBPUSDGBP202004140004567891234567123456789USD123456712345112356789
03316092410US316092410203S995690202105120525460E463                000000000005000000000                  1  N        DESCRIPTION    +A000SGDGGHD332222       444AXNAL            0000000000000000 N0000000000000000000000ASSET CL0SS A0SET CLASS ACS000000112222222222222000000003333333331111111USD000000009000000111111111USD000000502001310000111111000000007000000111111111000000600000006789123456USDGBPUSDGBP202004140004567890000000123456789USD123456712345112356789
03316092410US316092410203S995690202105120525460E463                000000000005000000000 N                1  N        DESCRIPTION    +A000SGDGGHD332222       444AXNAL            0000000000000000  0000000000000000000000ASSET CL0SS A0SET CLASS ACS000000112222222222222000000003333333331111111USD000000009000000111111111USD000000502001310000111111000000007000000111111111000000600000006789123456USDGBPUSDGBP202004140004567891234567123456789USD123456712345112356789
03316092410US316092410203S995690202105120525460E463                000000000005000000000 N                1  N        DESCRIPTION    +A000SGDGGHD332222       444AXNAL            0000000000000000  0000000000000000000000ASSET CL0SS A0SET CLASS ACS000000112222222222222000000003333333331111111USD000000000000000000000000USD000000502001310000111111000000007000000111111111000000600000006789123456USDGBPUSDGBP202004140004567891234567123456789USD123456712345112356789
03316092410US316092410203S995690202105120625460E463                000000000005000000000 N                1  N        DESCRIPTION    +A000SGDGGHD332222       444AXNAL            0000000000000000  0000000000000000000000ASSET CL0SS A0SET CLASS ACS000000112222222222222000000003333333331111111USD000000000000000000000000USD000000502001310000111111000000007000000111111111000000600000006789123456USDGBPUSDGBP202004140004567891234567123456789USD123456712345112356789
03316092410US316092410203S995690202105120625460E463                000000000005000000000 N                1  N        DESCRIPTION    +A000SGDGGHD332222       444AXNAL            0000000000000000  0000000000000000000000ASSET CL0SS A0SET CLASS ACS000000112222222222222000000003333333331111111USD000000009000000111111111USD000000502001310000111111000000007000000111111111000000600000006789123456USDGBPUSDGBP202004140004567891234567123456789USD123456712345112356789
03316092410US316092410203S995690202105120625460E463                000000000005000000000 N                1  N        DESCRIPTION    +A000SGDGGHD332222       444AXNAL            0000000000000000 N0000000000000000000000ASSET CL0SS A0SET CLASS ACS000000112222222222222000000003333333331111111USD000000009000000111111111USD000000502001310000111111000000007000000111111111000000600000006789123456USDGBPUSDGBP202004140004567891234567000000000USD123456712345112356789
03316092410US316092410203S9956902021051299                         000000000005000000000 N                1  N        DESCRIPTION    +A000SGDGGHD332222       444AXNAL            0000000000000000 N0000000000000000000000ASSET CL0SS A0SET CLASS ACS000000112222222222222000000003333333331111111USD000000009000000111111111USD000000502001310000111111000000007000000111111111000000600000006789123456USDGBPUSDGBP202004140004567891234567123456789USD123456712345112356789
03316092410US316092410203S9956902021051299                 S       000000000005000000000 N                1  N        DESCRIPTION    +A000SGDGGHD332222       444AXNAL            0000000000000000 N0000000000000000000000ASSET CL0SS A0SET CLASS ACS000000112222222222222000000003333333331111111USD000000009000000111111111USD000000502001310000111111000000007000000111111111000000600000006789123456USDGBPUSDGBP202004140000000001234567123456789USD123456712345112356789
03316092410US316092410203S9956902021051299    7W114     G          000000000005000000000 N                1  N        DESCRIPTION    +A000SGDGGHD332222       444AXNAL            0000000000000000 N0000000000000000000000ASSET CL0SS A0SET CLASS ACS000000112222222222222000000003333333331111111USD000000009000000111111111USD000000502001310000111111000000007000000111111111000000600000006789123456USDGBPUSDGBP202004140004567891234567123456789USD123456712345000000000
03316092410US316092410203S9956902021051299DESCRIPTION SAMPLE FOR 99000000000005000000000 N                1  N        DESCRIPTION    +A000SGDGGHD332222       444AXNAL            0000000000000000  0000000000000000000000ASSET CL0SS A0SET CLASS ACS000000112222222222222000000003333333331111111USD000000009000000111111111USD000000502001310000111111000000007000000111111111000000600000006789123456USDGBPUSDGBP202004140004567891234567123456789USD123456712345000000000
03316092410US316092410203S995690202105129912459R777                000000000005000000000 N                1  N        DESCRIPTION    +A000SGDGGHD332222       444AXNAL            0000000000000000 N0000000000000000000000ASSET CL0SS A0SET CLASS ACS000000112222222222222000000003333333331111111USD000000009000000111111111USD000000502001310000111111000000007000000111111111000000600000006789123456USDGBPUSDGBP202004140000000001234567123456789USD123456712345112356789
03316092410US316092410203S99569020210512992 A D F A 3 6            000000000005000000000 N                1  N        DESCRIPTION    +A000SGDGGHD332222       444AXNAL            0000000000000000  0000000000000000000000ASSET CL0SS A0SET CLASS ACS000000112222222222222000000003333333331111111USD000000009000000111111111USD000000502001310000111111000000007000000111111111000000600000006789123456USDGBPUSDGBP202004140004567891234567123456789USD123456712345000000000
0246435U143US46435U143803S995922ISHARES TR EDGE MSCI MULTIFACTOR USA MID-CAP ETF            20210512000027670000000100000000000000 000000000000000000 00000000000000 000000000000000000 00000000000000 00000000000000000000000000 00000000000000 000000000000000000000000050000MIDF           YYY01D       00000000000000000000000000000000000000101000000001630STATE STREET BANK AND TRUST COMPANY                                 00000000000000000000000 0000000        0000000        00000000000000000000YYY
0346435U143US46435U143803S995922202105120152468L786                000000000005000000000   WINC           0 1Y        LEGG MASON ETF INVT TR WESTN ASSET SHORT DURATION INCOME    0000000000000000SN0000000000000000000000ASSET CLASS ASSET CLASS ACS111111111111111111111012345678912312312345677USD000000009000000111111111USD000000000000000000000000000000007000000111111111000000600000006789123456USDEURUSDGBP202004149999999991234567987654321USD123456712345112356789
0292189H508US92189H508103S995963VANECK VECTORS ETF TR MUN ALLOCATION ETF                    20210512000022090000000100000000000000 000000000000000000 00000000000000 000000000000000000 00000000000000 00000000000000000000000000 00000000000000 000000000000000000000000050000MAAX           YYY01D       00000000000000000000000000000000000000101000000001630STATE STREET BANK AND TRUST COMPANY                                 00000000000000000000000 0000000        0000000        00000000000000000000YYY
0392189H508US92189H508103S995963202105120192189H508                000000000005000000000   MAAX           0 1Y        VANECK VECTORS ETF TR MUN ALLOCATION ETF                    0000000000000000S 0000000000000000000000ASSET CLASS ASSET CLASS ACS111111111111111111111012345678912312312345677USD000000009000000111111111USD000000000000000000000000000000007000000111111111000000600000006789123456USDEURUSDGBP202009169999999991234567987654321USD123456712345112356789
0246435U135US46435U135403S996128ISHARES TR CYBERSECURITY & TECH ETF                         20210512000027670000000200000000000000 000000000000000000 00000000000000 000000000000000000 00000000000000 00000000000000000000000000 00000000000000 000000000000000000000000050000IHAK           YNY01F       00000000000000000000000000000000000000101000000001630STATE STREET BANK AND TRUST COMPANY                                 00000000000000000000000 0000000        0000000        00000000000000000000YYY
0346435U135US46435U135403S996128202105120100768Y883                000000000005000000000 N HDGE           0 1Y        ADVISORSHARES TRUST RANGER EQUITY BEAR ETF                  0000000000000000S 0000000000000000000000ASSET CLASS ASSET CLASS ACS000000112222222222222000000003333333331111111USD000000009000000111111111USD000000502001310000111111000000007000000111111111000000600000006789123456USDGBPUSDGBP202004140004567891234567123456789USD123456712345112356789
0346435U135US46435U135403S996128202105120100768Y883                000000000005000000000 N HDGE           0 1Y        ADVISORSHARES TRUST RANGER EQUITY BEAR ETF                  0000000000000000S 0000000000000000000000ASSET CLASS ASSET CLASS ACS000000112222222222222000000003333333331111111USD000000009000000111111111USD000000502001310000111111000000007000000111111111000000600000006789123456USDGBPUSDGBP202004140004567891234567123456789USD123456712345112356789
0246435U192US46435U192503S996300ISHARES TR GENOMICS IMMUNOLOGY & HEALTHCARE ETF             20210512000027670000000100000000000000 000000000000000000 00000000000000 000000000000000000 00000000000000 00000000000000000000000000 00000000000000 000000000000000000000000050000IDNA           YNY01F       00000000000000000000000000000000000000101000000001630STATE STREET BANK AND TRUST COMPANY                                 00000000000000000000000 0000000        0000000        00000000000000000000YYY
0346435U192US46435U192503S996300202105120125460E497                000000000005000000000 N TAWK           0 1Y        DIREXION SHS ETF TR DAILY COMMUN SVCS INDEX BULL 3X SHS (DE)0000000000000000S 0000000000000000000000ASSET CLASS ASSET CLASS ACS000000112222222222222000000003333333331111111USD000000009000000111111111USD000000502001310000111111000000007000000111111111000000600000006789123456USDGBPUSDGBP202004140004567891234567123456789USD123456712345112356789
0200768Y883US00768Y883903S996466ADVISORSHARES TRUST RANGER EQUITY BEAR ETF                  20210512000022090000000200000000000000 000000000000000000 00000000000000 000000000000000000 00000000000000 00000000000000000000000000 00000000000000 000000000000000000000000000044HDGE           YYY01F       00000000000000000000000000000000000000101000000000008REORG MANDATORY                                                     00000000000000000000000 0000000        0000000        00000000000000000000YYY
0300768Y883US00768Y883903S996466202105120100768Y883                000000000050000000000 N HDGE           0 1Y        ADVISORSHARES TRUST RANGER EQUITY BEAR ETF                  0000000000000000S 0000000000000000002200ASSET CLASS ASSET CLASS ACS000000112222222222222000000003333333331111111USD000000009000000111111111USD000000201906250000111111000000007000000111111111000000600000006789123456USDGBPUSDGBP202102230004567891234567123456789USD123456712345112356789
0300768Y883US00768Y883903S996466202105120100768Y883                000000000050000000000 N HDGE           0 1Y        ADVISORSHARES TRUST RANGER EQUITY BEAR ETF                  0000000000000000S 0000000000000000002200ASSET CLASS ASSET CLASS ACS000000112222222222222000000003333333331111111USD000000009000000111111111USD000000201906250000111111000000007000000111111111000000600000006789123456USDGBPUSDGBP202102230004567891234567123456789USD123456712345112356789
0233737J117US33737J117003S996490FIRST TRUST EUROPE ALPHADEX FUND                            20210512000001090000000500000000000000 000000000000000000 00000000000000 000000000000000000 00000000000000 00000000000000000000000000 00000000000000 000000000000000000000000000028FEP            YYY01D       00000000000000000000000000000000000000101000000050131BROWN BROTHERS AND HARRIMAN                                         00000000000000000000000 0000000        0000000        00000000000000000000YYY
0333737J117US33737J117003S9964902021051201N311GAWU6                000000000000500000000 N                0 2N        EURONEXT AMSTERDAM N 00000  21                              0000000000000000B 0000000120000000000200SSET CL0SS A0SET CLASS ACS0000001122222222222220000000000000000000000000   000000000000000000000000   000005020013100001111110000000070000001111111110000000000000000000000000SDG                 0045678912345671000000000SDG234567123451000000000
0333737J117US33737J117003S996490202105120137950E705                000000000000500000000 N CHII           0 2N        GLOBAL X  MSCI CHINA INDUSTRIALS ETF                        0000000000000000S 0000000000000000000000SSET CL0SS A0SET CLASS ACS0000001122222222222220000000000000000000000000   000000000000000000000000   000005020013100001111110000000070000001111111110000000000000000000000000SDG                 0045678912345671000000000SDG234567123451000000000
0333737J117US33737J117003S996490202105120179623PEW1                000000000000500000000 N                0 1Y        SAN ANTONIO TEX      01763  31                              0000000000000000B 0000000120000000000200SSET CL0SS A0SET CLASS ACS0000001122222222222220000000000000000000000000   000000000000000000000000   000005020013100001111110000000070000001111111110000000000000000000000000SDG                 0045678912345671000000000SDG234567123451000000000
0333737J117US33737J117003S996490202105120198888BAC0                000000000000500000000 N                0 2N        ZAIS CLO 14 LTD / ZA 00000  32                              0000000000000000B 0000000120000000000200SSET CL0SS A0SET CLASS ACS0000001122222222222220000000000000000000000000   000000000000000000000000   000005020013100001111110000000070000001111111110000000000000000000000000SDG                 0045678912345671000000000SDG234567123451000000000
0333737J117US33737J117003S9964902021051203US30315CAK62             000000000000500000000 N                0 2N        FREMF 2020-KF79 MTG  00000  30                              0000000000000000B 0000000120000000000200SSET CL0SS A0SET CLASS ACS0000001122222222222220000000000000000000000000   000000000000000000000000   000005020013100001111110000000070000001111111110000000000000000000000000SDG                 0045678912345671000000000SDG234567123451000000000
0233737J240US33737J240003S996631FIRST TRUST HONG KONG ALPHADEX FUND                         20210512000022090000000100000000000000 000000000000000000 00000000000000 000000000000000000 00000000000000 00000000000000000000000000 00000000000000 000000000000000000000000000034FHK            YYY01D       00000000000000000000000000000000000000101000000000008REORG MANDATORY                                                     00000000000000000000000 0000000        0000000        00000000000000000000YYY
0333737J240US33737J240003S996631202105120125460E497                000000000005000000000 N TAWK           0 1Y        DIREXION SHS ETF TR DAILY COMMUN SVCS INDEX BULL 3X SHS (DE)0000000000000000S 0000000000000000000000ASSET CLASS ASSET CLASS ACS000000112222222222222000000003333333331111111USD000000009000000111111111USD000000502001310000111111000000007000000111111111000000600000006789123456USDGBPUSDGBP202009160004567891234567123456789USD123456712345112356789
0252468L786US52468L786303S996664LEGG MASON ETF INVT TR WESTN ASSET SHORT DURATION INCOME    20210512000022090000001100000000000000 000000000000000000 00000000000000 000000000000000000 00000000000000 00000000000000000000000000 00000000000000 000000000000000000000000000034WINC           YYY01D       00000000000000000000000000000000000000101000000009511BANK OF NEW YORK                                                    00000000000000000000000 0000000        0000000        00000000000000000000YYY
0352468L786US52468L786303S9966642021051201C01037AA5                000000000050000000000 N                0 2N        AIR CDA 2015-1 PASS  03600  27                              0000000000000000BN0000000111200000001219ASSET CL0SS A0SET CLASS ACS000000112222222222222000000003333333331111111USD000000009000000111111111USD000000502001310000111111000000007000000111111111000000600000006789123456USDGBPUSDGBP202009160004567891234567123456789USD123456712345112356789
0352468L786US52468L786303S9966642021051201G0487TAS0                000000000050000000000 N                0 2N        APIDOS CLO XV / APID 00000  31                              0000000000000000BN0000000111200000001219ASSET CL0SS A0SET CLASS ACS000000112222222222222000000003333333331111111USD000000009000000111111111USD000000502001310000111111000000007000000111111111000000600000006789123456USDGBPUSDGBP202009160004567891234567123456789USD123456712345112356789
0352468L786US52468L786303S9966642021051201G0487TAT8                000000000050000000000 N                0 2N        APIDOS CLO XV / APID 00000  31                              0000000000000000BN0000000000000000000000ASSET CL0SS A0SET CLASS ACS000000112222222222222000000003333333331111111USD000000009000000111111111USD000000502001310000111111000000007000000111111111000000600000006789123456USDGBPUSDGBP202009160004567891234567123456789USD123456712345112356789
0352468L786US52468L786303S9966642021051201G0487UAC2                000000000050000000000 N                0 2N        APIDOS CLO XV        00000  31                              0000000000000000BN0000000000000000000000ASSET CL0SS A0SET CLASS ACS000000112222222222222000000003333333331111111USD000000009000000111111111USD000000502001310000111111000000007000000111111111000000600000006789123456USDGBPUSDGBP202009160004567891234567123456789USD123456712345112356789
0352468L786US52468L786303S9966642021051201G0487UAD0                000000000050000000000 N                0 2N        APIDOS CLO XV        00000  31                              0000000000000000BN0000000111200000001219ASSET CL0SS A0SET CLASS ACS000000112222222222222000000003333333331111111USD000000009000000111111111USD000000502001310000111111000000007000000111111111000000600000006789123456USDGBPUSDGBP202009160004567891234567123456789USD123456712345112356789
0352468L786US52468L786303S9966642021051201G21882AN8                000000000050000000000 N                0 2N        CLARIS IV LIMITED    00000  51                              0000000000000000BN0000000000000000000000ASSET CL0SS A0SET CLASS ACS000000112222222222222000000003333333331111111USD000000009000000111111111USD000000502001310000111111000000007000000111111111000000600000006789123456USDGBPUSDGBP202009160004567891234567123456789USD123456712345112356789
0352468L786US52468L786303S9966642021051201G371E2AA6                000000000050000000000 N                0 2N        FRESNILLO PLC, LONDO 05500  23                              0000000000000000BN0000000111200000001219ASSET CL0SS A0SET CLASS ACS000000112222222222222000000003333333331111111USD000000009000000111111111USD000000502001310000111111000000007000000111111111000000600000006789123456USDGBPUSDGBP202009160004567891234567123456789USD123456712345112356789
0352468L786US52468L786303S996664202105120137950E416                000000000000500000000 N SOCL           0 2N        GLOBAL X FDS GLOBAL X SOCIAL MEDIA INDEX ETF                0000000000000000SN0000000000000000000000ASSET CL0SS A0SET CLASS ACS000000112222222222222000000003333333331111111USD000000009000000111111111USD000000502001310000111111000000007000000111111111000000600000006789123456USDGBPUSDGBP202009160004567891234567123456789USD123456712345112356789
0352468L786US52468L786303S996664202105120137950E549                000000000050000000000 N SDIV           0 2N        GLOBAL X FDS GLOBAL X SUPERDIVIDEND ETF                     0000000000000000SN0000000000000000000000ASSET CL0SS A0SET CLASS ACS000000112222222222222000000003333333331111111USD000000009000000111111111USD000000502001310000111111000000007000000111111111000000600000006789123456USDGBPUSDGBP202009160004567891234567123456789USD123456712345112356789
0352468L786US52468L786303S996664202105120137950E705                000000000050000000000 N CHII           0 2N        GLOBAL X  MSCI CHINA INDUSTRIALS ETF                        0000000000000000SN0000000000000000000000ASSET CL0SS A0SET CLASS ACS000000112222222222222000000003333333331111111USD000000009000000111111111USD000000502001310000111111000000007000000111111111000000600000006789123456USDGBPUSDGBP202009160004567891234567123456789USD123456712345112356789
0352468L786US52468L786303S996664202105120192189H508                000000000050000000000 N MAAX           0 1Y        VANECK VECTORS ETF TR MUN ALLOCATION ETF                    0000000000000000SN0000000000000000000000ASSET CL0SS A0SET CLASS ACS000000112222222222222000000003333333331111111USD000000009000000111111111USD000000502001310000111111000000007000000111111111000000600000006789123456USDGBPUSDGBP202009160004567891234567123456789USD123456712345112356789
0274255Y789US74255Y789303S996748PRINCIPAL EXCHANGE-TRADED FDS   PRIN U S LARGE CAP MULTI    20210512000027670000000200000000000000 000000000000000000 00000000000000 000000000000000000 00000000000000 00000000000000000000000000 00000000000000 000000000000000000000000050000PLC            YYY01D       00000000000000000000000000000000000000101000000001630STATE STREET BANK AND TRUST COMPANY                                 00000000000000000000000 0000000        0000000        00000000000000000000YYY
0374255Y789US74255Y789303S996748202105120125460E497                000000000005000000000 N TAWK           0 1Y        DIREXION SHS ETF TR DAILY COMMUN SVCS INDEX BULL 3X SHS (DE)0000000000000000S 0000000000000000000000ASSET CLASS ASSET CLASS ACS000000112222222222222000000003333333331111111USD000000009000000111111111USD000000502001310000111111000000007000000111111111000000600000006789123456USDGBPUSDGBP202004140004567891234567123456789USD123456712345112356789
0374255Y789US74255Y789303S996748202105120174347W114                000000000005000000000 N ZSL            0 1Y        PROSHARES ULTRASHORT SILVER                                 0000000000000000S 0000000000000000000000ASSET CLASS ASSET CLASS ACS000000112222222222222000000003333333331111111USD000000009000000111111111USD000000502001310000111111000000007000000111111111000000600000006789123456USDGBPUSDGBP202004140004567891234567123456789USD123456712345112356789
0225459W458US25459W458300S990143DIREXION DAILY SEMICONDUCTOR SHS                            20210513000022090000000100000000000000 000000000000000000 00000000000000 000000000000000000 00000000000000 00000000000000000000000000 00000000000000 000000000000000000000000050000SOXL           YYY01D       00000000000000000000000000000000000000102030000009511BANK OF NEW YORK                                                    00000000000000000000000 0000000        0000000        00000000000000000000YYY
0325459W458US25459W458300S990143202105130125459W458                000000000005000000000 N SOXL           0 1Y        DIREXION DAILY SEMICONDUCTOR SHS                            0000000000000000S 0000000000000000000000SSET CL0SS A0SET CLASS ACS0000001122222222222220000000000000000000000000   000000000000000000000000   000005020013100001111110000000070000001111111110000000000000000000000000SDG                 0045678912345671000000000SDG234567123451000000000
02464286491US464286491600S994996ISHARES INC EMERGING MKTS LOCAL CURRENCY REDEEM BASKET      20210513000027670000000100000000000000 000000000000000000 00000000000000 000000000000000000 00000000000000 00000000000000000000000000 00000000000000 000000000000000000000000200000LEMBRD         NNY01F       000000000000000000000000000000000000002010000                                                                            00000000000000000000000 0000000        0000000        00000000000000000000YYY
03464286491US464286491600S994996202105130192189H508                000000000005000000000 N MAAX           0 1Y        VANECK VECTORS ETF TR MUN ALLOCATION ETF                    0000000000000000S 0000000000000000000000ASSET CLASS ASSET CLASS ACS111111111111111111111012345678912312312345677USD000000009000000111111111USD000000000000000000000000000000007000000111111111000000600000006789123456USDEURUSDGBP202004149999999991234567987654321USD123456712345112356789
0233738R118US33738R118700S997841FIRST TRUST NASDAQ TECHNOLOGY INDEX ETF                     20210513000001090000000200000000000000 000000000000000000 00000000000000 000000000000000000 00000000000000 00000000000000000000000000 00000000000000 000000000000000000000000050000TDIV           YYY01D       00000000000000000000000000000000000000101000000050131BROWN BROTHERS AND HARRIMAN                                         00000000000000000000000 0000000        0000000        00000000000000000000YYY
0333738R118US33738R118700S997841202105130133738R118                000000000005000000900 NXTDIV           0 1Y        FIRST TRUST NASDAQ TECHNOLOGY INDEX ETF                     0000000000000000SN0000000000000000000000ASSET CL0SS A0SET CLASS ACS000000112222222222222000000003333333331111111USD000000009000000111111111USD000000502001310000111111000000007000000111111111000000600000006789123456USDGBPUSDGBP202009160004567891234567123456789USD123456712345112356789
0333738R118US33738R118700S997841202105130133738R118                000000000005000000000 N TDIV           0 1Y        FIRST TRUST NASDAQ TECHNOLOGY INDEX ETF                     0000000000000000SN0000000000000000000000ASSET CL0SS A0SET CLASS ACS000000112222222222222000000003333333331111111USD000000009000000111111111USD000000502001310000111111000000007000000111111111000000600000006789123456USDGBPUSDGBP202009160004567891234567123456789USD123456712345112356789
0225459Y413US25459Y413600S999771DIREXION DAILY JAPAN BULL 3X SHARES ETF                     20210513000022090000000100000000000000 000000000000000000 00000000000000 000000000000000000 00000000000000 00000000000000000000000000 00000000000000 000000000000000000000000050000JPNL           YYY01D       00000000000000000000000000000000000000102030000000008REORG MANDATORY                                                     00000000000000000000000 0000000        0000000        00000000000000000000YYY
0325459Y413US25459Y413600S999771202105130138380PNA8                000000000005000000000 N                0 2N        GOVERNMENT NATL MTG  00000  62                              0000000000000000BN0000000000000000000000ASSET CLASS ASSET CLASS ACS000000112222222222222000000003333333331111111USD000000009000000111111111USD000000201906250000111111000000007000000111111111000000600000006789123456USDGBPUSDGBP201906100004567891234567123456789USD123456712345112356789
0237950E705US37950E7058000S01148GLOBAL X  MSCI CHINA INDUSTRIALS ETF                        20210513000001090000000700000000000000 000000000000000000 00000000000000 000000000000000000 00000000000000 00000000000000000000000000 00000000000000 000000000000000000000000050000CHII           NNY01F       00000000000000000000000000000000000000101000000050131BROWN BROTHERS AND HARRIMAN                                         00000000000000000000000 0000000        0000000        00000000000000000000YYY
0337950E705US37950E7058000S011482021051301U6S7728S9                000000000005000000000 N                0 2N        MORGAN STANLEY FIN L 00000  28                              0000000000000000B 0000000000000000000000SSET CL0SS A0SET CLASS ACS0000001122222222222220000000000000000000000000   000000000000000000000000   000005020013100001111110000000070000001111111110000000000000000000000000SDG                 0045678912345671000000000SDG234567123451000000000
0337950E705US37950E7058000S01148202105130133737J117                000000000005000000000 N FEP            0 1Y        FIRST TRUST EUROPE ALPHADEX FUND                            0000000000000000S 0000000000000000000000SSET CL0SS A0SET CLASS ACS0000001122222222222220000000000000000000000000   000000000000000000000000   000005020013100001111110000000070000001111111110000000000000000000000000SDG                 0045678912345671000000000SDG234567123451000000000
0337950E705US37950E7058000S01148202105130137950E705                000000000004000000000 N CHII           0 2N        GLOBAL X  MSCI CHINA INDUSTRIALS ETF                        0000000000000000S 0000000000000000000000SSET CL0SS A0SET CLASS ACS0000001122222222222220000000000000000000000000   000000000000000000000000   000005020013100001111110000000070000001111111110000000000000000000000000SDG                 0045678912345671000000000SDG234567123451000000000
0337950E705US37950E7058000S01148202105130138380PNA8                000000000005000000000 N                0 2N        GOVERNMENT NATL MTG  00000  62                              0000000000000000B 0000000000000000000000SSET CL0SS A0SET CLASS ACS0000001122222222222220000000000000000000000000   000000000000000000000000   000005020013100001111110000000070000001111111110000000000000000000000000SDG                 0045678912345671000000000SDG234567123451000000000
0337950E705US37950E7058000S01148202105130138382FH56                000000000005000000000 N                0 2N        GOVERNMENT NATL MTG  00000                                  0000000000000000B 0000000000000000000000SSET CL0SS A0SET CLASS ACS0000001122222222222220000000000000000000000000   000000000000000000000000   000005020013100001111110000000070000001111111110000000000000000000000000SDG                 0045678912345671000000000SDG234567123451000000000
0337950E705US37950E7058000S01148202105130190288G561                000000000005000000000 N                1  N        DESCRIPTION    +A000SGDGGHD332222       444AXNAL            0000000000000000  0000000000000000000000SSET CL0SS A0SET CLASS ACS0000001122222222222220000000000000000000000000   000000000000000000000000   000005020013100001111110000000070000001111111110000000000000000000000000SDG                 0045678912345671000000000SDG234567123451000000000
0337950E705US37950E7058000S01148202105130198888BAC0                000000000004000000000 N                0 2N        ZAIS CLO 14 LTD / ZA 00000  32                              0000000000000000B 0000000000000000000000SSET CL0SS A0SET CLASS ACS0000001122222222222220000000000000000000000000   000000000000000000000000   000005020013100001111110000000070000001111111110000000000000000000000000SDG                 0045678912345671000000000SDG234567123451000000000
0245409B206US45409B20600000S8763IQ HEDGE GLOBAL MACRO ETF                                   20210513000022090000000400000000000000 000000000000000000 00000000000000 000000000000000000 00000000000000 00000000000000000000000000 00000000000000 000000000000000000000000050000MCRO           YYY01D       00000000000000000000000000000000000000501000000009511BANK OF NEW YORK                                                    00000000000000000000000 0000000        0000000        00000000000000000000YYY
0345409B206US45409B20600000S87632021051301G32227AA1                000000000050000000000 N                0 2N        HPS LN MGMT 5-2015 L 00000                                  0000000000000000BN0000000111200000891219ASSET CL0SS A0SET CLASS ACS000000112222222222222000000003333333331111111USD000000009000000111111111USD000000502001310000111111000000007000000111111111000000600000006789123456USDGBPUSDGBP202009160004567891234567123456789USD123456712345112356789
0345409B206US45409B20600000S87632021051301G32227AB9                000000000050000000000 N                0 2N        HPS LN MGMT 5-2015 L 00000                                  0000000000000000BN0000000111200000891219ASSET CL0SS A0SET CLASS ACS000000112222222222222000000003333333331111111USD000000009000000111111111USD000000502001310000111111000000007000000111111111000000600000006789123456USDGBPUSDGBP202009160004567891234567123456789USD123456712345112356789
0345409B206US45409B20600000S87632021051301G3223BAA1                000000000050000000000 N                0 2N        HPS LN MGMT 7-2015 L 00000  27                              0000000000000000BN0000000111200000891219ASSET CL0SS A0SET CLASS ACS000000112222222222222000000003333333331111111USD000000009000000111111111USD000000502001310000111111000000007000000111111111000000600000006789123456USDGBPUSDGBP202009160004567891234567123456789USD123456712345112356789
0345409B206US45409B20600000S87632021051301G3223BAB9                000000000050000000000 N                0 2N        HPS LN MGMT 7-2015 L 00000  27                              0000000000000000BN0000000111200000891219ASSET CL0SS A0SET CLASS ACS000000112222222222222000000003333333331111111USD000000009000000111111111USD000000502001310000111111000000007000000111111111000000600000006789123456USDGBPUSDGBP202009160004567891234567123456789USD123456712345112356789
0237954Y632US37954Y632602S999629GLOBAL X FDS FUTURE ANALYTICS TECH ETF                      20210513000001090000000100000000000000 000000000000000000 00000000000000 000000000000000000 00000000000000 00000000000000000000000000 00000000000000 000000000000000000000000050000AIQ            YNY01F       00000000000000000000000000000000000000101000000050131BROWN BROTHERS AND HARRIMAN                                         00000000000000000000000 0000000        0000000        00000000000000000000YYY
0337954Y632US37954Y632602S999629202105130137954Y632                000000000005000000000 N AIQ            0 1Y        GLOBAL X FDS FUTURE ANALYTICS TECH ETF                      0000000000000000S 0000000000000000000000SSET CL0SS A0SET CLASS ACS0000001122222222222220000000000000000000000000   000000000000000000000000   000005020013100001111110000000070000001111111110000000000000000000000000SDG                 0045678912345671000000000SDG234567123451000000000
0274347B284US74347B284202S999785PROSHARES TR ULTRASHORT MSCI EMERGING MARKETS ETF NEW       20210513000023570000000500000000000000 000000000000000000 00000000000000 000000000000000000 00000000000000 00000000000000000000000000 00000000000000 000000000000000000000000025000EEV            YYY01D       00000000000000000000000000000000000000103020000050144JP MORGAN CHASE BANK                                                00000000000000000000000 0000000        0000000        00000000000000000000YYY
0374347B284US74347B284202S9997852021051301G0446NAJ3                000000000005000000000  X               1  N        DESCRIPTION   +A000SGDGGHD332222       444AXNAL             0000000000000000 N0000000000000000000000ASSET CL0SS A0SET CLASS ACS000000112222222222222000000003333333331111111USD000001009000000111111111USD000000502001310000111111000000007000000111111111000000600000006789123456USDGBPUSDGBP202004140004567891234567123456789USD123456712345112356789
0374347B284US74347B284202S9997852021051301G24668108                000000000005000000000  X               1  N        DESCRIPTION   +A000SGDGGHD332222       444AXNAL             0000000000000000 N0000000000000000000000ASSET CL0SS A0SET CLASS ACS000000112222222222222000000003333333331111111USD000001009000000111111111USD000000502001310000111111000000007000000111111111000000600000006789123456USDGBPUSDGBP202004140004567891234567123456789USD123456712345112356789
0374347B284US74347B284202S999785202105130174347B284                000000000005000000000   EEV            0 1Y        PROSHARES TR ULTRASHORT MSCI EMERGING MARKETS ETF NEW       0000000000000000SN0000000000000000000000ASSET CL0SS A0SET CLASS ACS000000112222222222222000000003333333331111111USD000001009000000111111111USD000000502001310000111111000000007000000111111111000000600000006789123456USDGBPUSDGBP202004140004567891234567123456789USD123456712345112356789
0374347B284US74347B284202S9997852021051303US33737J1170             000000000005000000000   FEP            0 1Y        FIRST TRUST EUROPE ALPHADEX FUND                            0000000000000000SN0000000000000000000000ASSET CL0SS A0SET CLASS ACS000000112222222222222000000003333333331111111USD000001009000000111111111USD000000502001310000111111000000007000000111111111000000600000006789123456USDGBPUSDGBP202004140004567891234567123456789USD123456712345112356789
0374347B284US74347B284202S9997852021051303US9117171069             000000000005000000000   USCI           0 1Y        UNITED STS COMMODITY INDEX FD                               0000000000000000SN0000000000000000000000ASSET CL0SS A0SET CLASS ACS000000112222222222222000000003333333331111111USD000001009000000111111111USD000000502001310000111111000000007000000111111111000000600000006789123456USDGBPUSDGBP202004140004567891234567123456789USD123456712345112356789
0246137V498US46137V498603S992200INVESCO S&P SMALLCAP MOMENTUM ETF                           20210513000022090000002500000000000000 000000000000000000 00000000000000 000000000000000000 00000000000000 00000000000000000000000000 00000000000000 000000000000000000000000050000XSMO           YYY01D       00000000000000000000000000000000000000101000000009511BANK OF NEW YORK                                                    00000000000000000000000 0000000        0000000        00000000000000000000YYY
0346137V498US46137V498603S9922002021051301C01036AA7                000000000050000000000 N                0 2N        AIR CDA 2013-1 PASS  04125  25                              0000000000000000BN0000000111200000000200ASSET CL0SS A0SET CLASS ACS000000112222222222222000000003333333331111111USD000000009000000111111111USD000000502001310000111111000000007000000111111111000000600000006789123456USDGBPUSDGBP202009160004567891234567123456789USD123456712345112356789
0346137V498US46137V498603S9922002021051301G0487TAS0                000000000050000000000 N                0 2N        APIDOS CLO XV / APID 00000  31                              0000000000000000BN0000000111200000000200ASSET CL0SS A0SET CLASS ACS000000112222222222222000000003333333331111111USD000000009000000111111111USD000000502001310000111111000000007000000111111111000000600000006789123456USDGBPUSDGBP202009160004567891234567123456789USD123456712345112356789
0346137V498US46137V498603S9922002021051301G0487TAT8                000000000050000000000 N                0 2N        APIDOS CLO XV / APID 00000  31                              0000000000000000BN0000000111200000000200ASSET CL0SS A0SET CLASS ACS000000112222222222222000000003333333331111111USD000000009000000111111111USD000000502001310000111111000000007000000111111111000000600000006789123456USDGBPUSDGBP202009160004567891234567123456789USD123456712345112356789
0346137V498US46137V498603S9922002021051301G0487UAC2                000000000050000000000 N                0 2N        APIDOS CLO XV        00000  31                              0000000000000000BN0000000111200000000200ASSET CL0SS A0SET CLASS ACS000000112222222222222000000003333333331111111USD000000009000000111111111USD000000502001310000111111000000007000000111111111000000600000006789123456USDGBPUSDGBP202009160004567891234567123456789USD123456712345112356789
0346137V498US46137V498603S9922002021051301G0487UAD0                000000000050000000000 N                0 2N        APIDOS CLO XV        00000  31                              0000000000000000BN0000000111200000000200ASSET CL0SS A0SET CLASS ACS000000112222222222222000000003333333331111111USD000000009000000111111111USD000000502001310000111111000000007000000111111111000000600000006789123456USDGBPUSDGBP202009160004567891234567123456789USD123456712345112356789
0346137V498US46137V498603S9922002021051301G1984RAC5                000000000005000000000 N                0 2N        C-BASS CBO XV LTD /  00000  41                              0000000000000000BN0000000000000000000200ASSET CL0SS A0SET CLASS ACS000000112222222222222000000003333333331111111USD000000009000000111111111USD000000502001310000111111000000007000000111111111000000600000006789123456USDGBPUSDGBP202009160004567891234567123456789USD123456712345112356789
0346137V498US46137V498603S9922002021051301G1984RAD3                000000000005000000000 N                0 2N        C-BASS CBO XV LTD /  00000  41                              0000000000000000BN0000000111200000000200ASSET CL0SS A0SET CLASS ACS000000112222222222222000000003333333331111111USD000000009000000111111111USD000000502001310000111111000000007000000111111111000000600000006789123456USDGBPUSDGBP202009160004567891234567123456789USD123456712345112356789
0346137V498US46137V498603S9922002021051301G1985AAA5                000000000005000000000 N                0 2N        C-BASS CBO IX LTD /  00748  39                              0000000000000000BN0000000111200000000200ASSET CL0SS A0SET CLASS ACS000000112222222222222000000003333333331111111USD000000009000000111111111USD000000502001310000111111000000007000000111111111000000600000006789123456USDGBPUSDGBP202009160004567891234567123456789USD123456712345112356789
0346137V498US46137V498603S9922002021051301G1985AAB3                000000000005000000000 N                0 2N        C-BASS CBO IX LTD /  00988  39                              0000000000000000BN0000000111200000000200ASSET CL0SS A0SET CLASS ACS000000112222222222222000000003333333331111111USD000000009000000111111111USD000000502001310000111111000000007000000111111111000000600000006789123456USDGBPUSDGBP202009160004567891234567123456789USD123456712345112356789
0346137V498US46137V498603S9922002021051301G21882AH1                000000000050000000000 N                0 2N        CLARIS IV LIMITED    00000  50                              0000000000000000BN0000000111200000000200ASSET CL0SS A0SET CLASS ACS000000112222222222222000000003333333331111111USD000000009000000111111111USD000000502001310000111111000000007000000111111111000000600000006789123456USDGBPUSDGBP202009160004567891234567123456789USD123456712345112356789
0346137V498US46137V498603S9922002021051301G21882AJ7                000000000050000000000 N                0 2N        CLARIS IV LIMITED    00000  50                              0000000000000000BN0000000111200000000200ASSET CL0SS A0SET CLASS ACS000000112222222222222000000003333333331111111USD000000009000000111111111USD000000502001310000111111000000007000000111111111000000600000006789123456USDGBPUSDGBP202009160004567891234567123456789USD123456712345112356789
0346137V498US46137V498603S9922002021051301G21882AK4                000000000050000000000 N                0 2N        CLARIS IV LIMITED    00000  50                              0000000000000000BN0000000111200000000200ASSET CL0SS A0SET CLASS ACS000000112222222222222000000003333333331111111USD000000009000000111111111USD000000502001310000111111000000007000000111111111000000600000006789123456USDGBPUSDGBP202009160004567891234567123456789USD123456712345112356789
0346137V498US46137V498603S9922002021051301G21882AL2                000000000050000000000 N                0 2N        CLARIS IV LIMITED    00000  50                              0000000000000000BN0000000111200000000200ASSET CL0SS A0SET CLASS ACS000000112222222222222000000003333333331111111USD000000009000000111111111USD000000502001310000111111000000007000000111111111000000600000006789123456USDGBPUSDGBP202009160004567891234567123456789USD123456712345112356789
0346137V498US46137V498603S9922002021051301G21882AM0                000000000050000000000 N                0 2N        CLARIS IV LIMITED    00000  50                              0000000000000000BN0000000111200000000200ASSET CL0SS A0SET CLASS ACS000000112222222222222000000003333333331111111USD000000009000000111111111USD000000502001310000111111000000007000000111111111000000600000006789123456USDGBPUSDGBP202009160004567891234567123456789USD123456712345112356789
0346137V498US46137V498603S9922002021051301G21882AN8                000000000050000000000 N                0 2N        CLARIS IV LIMITED    00000  51                              0000000000000000BN0000000111200000000200ASSET CL0SS A0SET CLASS ACS000000112222222222222000000003333333331111111USD000000009000000111111111USD000000502001310000111111000000007000000111111111000000600000006789123456USDGBPUSDGBP202009160004567891234567123456789USD123456712345112356789
0346137V498US46137V498603S9922002021051301G3220TAA5                000000000005000000000 N                0 2N        HPS LN MGMT 11-2017  00000  30                              0000000000000000BN0000000000000000000200ASSET CL0SS A0SET CLASS ACS000000112222222222222000000003333333331111111USD000000009000000111111111USD000000502001310000111111000000007000000111111111000000600000006789123456USDGBPUSDGBP202009160004567891234567123456789USD123456712345112356789
0346137V498US46137V498603S9922002021051301G3223BAA1                000000000005000000000 N                0 2N        HPS LN MGMT 7-2015 L 00000  27                              0000000000000000BN0000000000000000000200ASSET CL0SS A0SET CLASS ACS000000112222222222222000000003333333331111111USD000000009000000111111111USD000000502001310000111111000000007000000111111111000000600000006789123456USDGBPUSDGBP202009160004567891234567123456789USD123456712345112356789
0346137V498US46137V498603S9922002021051301G3223BAB9                000000000005000000000 N                0 2N        HPS LN MGMT 7-2015 L 00000  27                              0000000000000000BN0000000111200000000200ASSET CL0SS A0SET CLASS ACS000000112222222222222000000003333333331111111USD000000009000000111111111USD000000502001310000111111000000007000000111111111000000600000006789123456USDGBPUSDGBP202009160004567891234567123456789USD123456712345112356789
0346137V498US46137V498603S9922002021051301G371E2AA6                000000000050000000000 N                0 2N        FRESNILLO PLC, LONDO 05500  23                              0000000000000000BN0000000111200000000200ASSET CL0SS A0SET CLASS ACS000000112222222222222000000003333333331111111USD000000009000000111111111USD000000502001310000111111000000007000000111111111000000600000006789123456USDGBPUSDGBP202009160004567891234567123456789USD123456712345112356789
0346137V498US46137V498603S992200202105130137950E416                000000000005000000000 N SOCL           0 2N        GLOBAL X FDS GLOBAL X SOCIAL MEDIA INDEX ETF                0000000000000000SN0000000000000000000000ASSET CL0SS A0SET CLASS ACS000000112222222222222000000003333333331111111USD000000009000000111111111USD000000502001310000111111000000007000000111111111000000600000006789123456USDGBPUSDGBP202009160004567891234567123456789USD123456712345112356789
0346137V498US46137V498603S992200202105130137950E416                000000000050000000000 N SOCL           0 2N        GLOBAL X FDS GLOBAL X SOCIAL MEDIA INDEX ETF                0000000000000000SN0000000000000000000000ASSET CL0SS A0SET CLASS ACS000000112222222222222000000003333333331111111USD000000009000000111111111USD000000502001310000111111000000007000000111111111000000600000006789123456USDGBPUSDGBP202009160004567891234567123456789USD123456712345112356789
0346137V498US46137V498603S992200202105130137950E549                000000000005000000000 N SDIV           0 2N        GLOBAL X FDS GLOBAL X SUPERDIVIDEND ETF                     0000000000000000SN0000000000000000000000ASSET CL0SS A0SET CLASS ACS000000112222222222222000000003333333331111111USD000000009000000111111111USD000000502001310000111111000000007000000111111111000000600000006789123456USDGBPUSDGBP202009160004567891234567123456789USD123456712345112356789
0346137V498US46137V498603S992200202105130137950E549                000000000050000000000 N SDIV           0 2N        GLOBAL X FDS GLOBAL X SUPERDIVIDEND ETF                     0000000000000000SN0000000000000000000000ASSET CL0SS A0SET CLASS ACS000000112222222222222000000003333333331111111USD000000009000000111111111USD000000502001310000111111000000007000000111111111000000600000006789123456USDGBPUSDGBP202009160004567891234567123456789USD123456712345112356789
